:100000000C9435000C945D000C945D000C945D0024
:100010000C945D000C945D000C945D000C945D00EC
:100020000C945D000C945D000C945D000C945D00DC
:100030000C945D000C945D000C945D000C945D00CC
:100040000C94AC020C945D000C947A020C94540253
:100050000C945D000C945D000C945D000C945D00AC
:100060000C945D000C945D00F60211241FBECFEFCE
:10007000D8E0DEBFCDBF22E0A6E5B1E001C01D9211
:10008000A635B207E1F711E0A0E0B1E0E4E4FEE05C
:1000900002C005900D92A635B107D9F710E0C5E36F
:1000A000D0E004C02197FE010E94F405C433D107BB
:1000B000C9F70E9442030C9420070C940000E3E669
:1000C000F1E0A089B18982E08C93A485B5851C926A
:1000D000A685B78580E18C93108EA489B58986E0CA
:1000E0008C93A289B3898C9180618C93A289B38906
:1000F0008C9188608C93A289B3898C9180688C9351
:100100000288F389E02D80818F7D80830895CF92CE
:10011000DF92EF92FF920F931F93CF93DF936C01C7
:100120007A018B01C0E0D0E0CE15DF0581F0D80167
:100130006D918D01D601ED91FC910190F081E02D42
:10014000C6010995892B11F02196EECF7E01C701DA
:10015000DF91CF911F910F91FF90EF90DF90CF90A3
:100160000895089580E090E00895FC01538D448D3A
:10017000252F30E0842F90E0821B930B541710F052
:10018000CF96089501970895FC01918D828D98175F
:1001900061F0828DDF01A80FB11D5D968C91928D6B
:1001A0009F5F9F73928F90E008958FEF9FEF089568
:1001B000FC01918D828D981731F0828DE80FF11D31
:1001C000858D90E008958FEF9FEF0895FC01918D4C
:1001D000228D892F90E0805C9F4F821B91098F7345
:1001E0009927089583E691E00E94E60021E0892B9B
:1001F00009F420E0822F0895FC01848DDF01A80F0F
:10020000B11DA35ABF4F2C91848D90E001968F733E
:100210009927848FA689B7892C93A089B1898C915D
:10022000837080648C93938D848D981306C00288AC
:10023000F389E02D80818F7D80830895EF92FF9276
:100240000F931F93CF93DF93EC0181E0888F9B8DF9
:100250008C8D981305C0E889F989808185FD26C0B9
:10026000F62E0B8D10E00F5F1F4F0F731127E02E3E
:100270008C8DE8120CC00FB607FCFACFE889F9891B
:10028000808185FFF5CFCE010E94FC00F1CF8B8DE0
:10029000FE01E80FF11DE35AFF4FF0829FB7F8947B
:1002A0000B8FEA89FB89808180620AC09FB7F8942E
:1002B000EE89FF896083E889F98980818370806491
:1002C00080839FBF81E090E0DF91CF911F910F91DC
:1002D000FF90EF900895CF93DF93EC01888D8823F2
:1002E000C9F0EA89FB89808185FD05C0A889B989A3
:1002F0008C9186FD0FC00FB607FCF5CF808185FF7E
:10030000F2CFA889B9898C9185FFEDCFCE010E94EB
:10031000FC00E7CFDF91CF91089580E090E0892B3A
:1003200029F00E94F20081110C94000008952FB76B
:10033000F89460915B0170915C0180915D019091F6
:100340005E012FBF08958F929F92AF92BF92EF925E
:10035000FF920F931F93CF93DF938B017C01C0E03B
:10036000D0E0C017D107A1F10E94970160936B0103
:1003700070936C0180936D0190936E0183E691E020
:100380000E94C40097FF1FC00E94970180906B01DC
:1003900090906C01A0906D01B0906E01DC01CB01DA
:1003A00088199909AA09BB09809067019090680192
:1003B000A0906901B0906A0188159905AA05BB054E
:1003C000E8F28E0105C0F70181937F012196C9CF24
:1003D000C801DF91CF911F910F91FF90EF90BF90D7
:1003E000AF909F908F9008956115710579F0FB0192
:1003F00001900020E9F73197AF01461B570BDC0154
:10040000ED91FC910280F381E02D099480E090E071
:1004100008958F929F92AF92BF92EF92FF920F93A7
:100420001F93CF93DF93CDB7DEB7A1970FB6F894A4
:10043000DEBF0FBECDBF7C01FA01CB0119A2223075
:1004400008F42AE08E010F5D1F4F822E912CA12C03
:10045000B12CBF01A50194010E94D205F901CA0186
:10046000015011096A3014F4605D01C0695CD80163
:100470006C93232B242B252B61F7B801C7010E9415
:10048000F401A1960FB6F894DEBF0FBECDBFDF9189
:10049000CF911F910F91FF90EF90BF90AF909F90E1
:1004A0008F9008950E941B071F920F920FB60F9214
:1004B00011242F933F934F935F936F937F938F9369
:1004C0009F93AF93BF93EF93FF9383E691E00E94D6
:1004D000FC00FF91EF91BF91AF919F918F917F9120
:1004E0006F915F914F913F912F910F900FBE0F90A1
:1004F0001F9018951F920F920FB60F9211242F93F1
:100500008F939F93EF93FF93E0917301F0917401A8
:100510008081E0917901F0917A0182FD12C0908191
:1005200080917C018F5F8F7320917D01821751F044
:10053000E0917C01F0E0ED59FE4F958F80937C01B6
:1005400001C08081FF91EF919F918F912F910F902A
:100550000FBE0F901F9018951F920F920FB60F921B
:1005600011242F933F938F939F93AF93BF938091C9
:100570005B0190915C01A0915D01B0915E013091B1
:100580005A0123E0230F2D3720F40196A11DB11D40
:1005900005C026E8230F0296A11DB11D20935A0124
:1005A00080935B0190935C01A0935D01B0935E0129
:1005B0008091560190915701A0915801B091590135
:1005C0000196A11DB11D8093560190935701A093F0
:1005D0005801B0935901BF91AF919F918F913F9175
:1005E0002F910F900FBE0F901F901895E3E6F1E04A
:1005F0001382128288EE93E0A0E0B0E084839583BA
:10060000A683B7838AE091E09183808385EC90E0B4
:100610009587848784EC90E09787868780EC90E0CC
:10062000918B808B81EC90E0938B828B82EC90E0BD
:10063000958B848B86EC90E0978B868B118E128E37
:10064000138E148EE0E0F2E0168217821086118677
:10065000128613861486158616861786108A118AC6
:10066000128A138A148A158AE9E4F2E081E0808311
:1006700011821382128288E492E0968385839087A8
:1006800087830895CF93DF931F92CDB7DEB7789419
:1006900084B5826084BD84B5816084BD85B5826087
:1006A00085BD85B5816085BD80916E008160809338
:1006B0006E001092810080918100826080938100A1
:1006C00080918100816080938100809180008160B1
:1006D000809380008091B10084608093B10080910C
:1006E000B00081608093B00080917A008460809334
:1006F0007A0080917A00826080937A0080917A00FB
:10070000816080937A0080917A00806880937A007B
:100710001092C100109244021092450210924602BB
:1007200010924702109202021092030210920402E9
:10073000109205020E9497016B017C014B015C0144
:1007400088EB880E8BE0981EA11CB11C0E949701BB
:100750006C157D058E059F0528F086169706A80660
:10076000B906A0F783E691E090934302809342029A
:100770000E945F000E94970160930202709303023F
:10078000809304029093050268E171E08091420237
:10079000909143020E94F4010E9497016B017C0139
:1007A0004B015C01EAE08E0E911CA11CB11C0E9461
:1007B00097016C157D058E059F0528F08616970616
:1007C000A806B906A0F781E0809316020E945F0098
:1007D00087E190E00E94FA057C0186E0EAE2F1E020
:1007E000D70101900D928A95E1F7D701169681E124
:1007F000E1E3F1E001900D928A95E1F787E090E066
:100800000E94FA056C01F70101900020E9F7319789
:100810003F016E187F0898E6592EF60150826182DA
:10082000F382E2825301BB244501F3E08F0E911C59
:10083000C4010E94FA058C01FC0160825182F6011C
:1008400096838583DC011296F701CF018E199F09EB
:100850008A159B051CF481918D93F7CFF8018FEFDA
:1008600091E32191822728E030E087FF03C0880FC1
:10087000892701C0880F21503109B9F79F01201B3A
:10088000310B2815390568F3F6018483A5014C5F07
:100890005F4FB80183E691E00E948700C114D10444
:1008A00049F00115110519F0C8010E949206C60110
:1008B0000E949206C7010E94920684EFC82EDD2492
:1008C000D394E12CF12C0E949701672B682B692BA4
:1008D00041F40E949701623071058105910508F489
:1008E0000FC10E94970100915F011091600120915A
:1008F000610130916201601771078207930740F42C
:1009000060935F0170936001809361019093620135
:1009100000915F01109160012091610130916201AD
:100920004B015C01801A910AA20AB30A9501840165
:100930000A3F11052105310508F4E2C060935F010B
:10094000709360018093610190936201C0920E02E6
:10095000D0920F02E0921002F09211021092120255
:100960001092130210921402109215028091060246
:1009700090910702A0910802B091090280930A02A7
:1009800090930B02A0930C02B0930D020E9497016A
:100990006093060270930702809308029093090205
:1009A0000E949701609302027093030280930402F5
:1009B000909305020E9497014B015C0162E471E093
:1009C00080914202909143020E94F4012AE041E0AA
:1009D00050E060E070E080914202909143020E94FA
:1009E000090269E471E080914202909143020E9401
:1009F000F4012AE0B501A4018091420290914302E2
:100A00000E9409026BE471E08091420290914302DE
:100A10000E94F4018091060290910702A0910802C1
:100A2000B0910902B501A401481B590B6A0B7B0B5D
:100A30002AE080914202909143020E9409026BE4F5
:100A400071E080914202909143020E94F401409132
:100A5000060250910702609108027091090280918C
:100A60000A0290910B02A0910C02B0910D02481B5A
:100A7000590B6A0B7B0B2AE0809142029091430252
:100A80000E9409026DE471E080914202909143025C
:100A90000E94F4010E949701AB01BC012AE0809101
:100AA0004202909143020E94090200914202109179
:100AB00043026FE471E0C8010E94F40167E271E053
:100AC000C8010E94F4010E9497014B015C012B01B7
:100AD0003C0185E0480E511C611C711C0E9497016D
:100AE000681579058A059B0508F055C00E94970195
:100AF00060930602709307028093080290930902A4
:100B000083E691E00E94E600181619060CF040C03A
:100B100061E070E0CE0101960E94A3019980A92CAA
:100B2000B12CC50104960E94FA058C01FC0191923A
:100B3000CF01B5016D5F7F4F0E94A30187E090E078
:100B40000E94FA05DC01F801908111969C9311979F
:100B500081818C9398012E5F3F4F13963C932E9387
:100B60001297E90FF11D928114969C931497AB2B69
:100B700079F09091490289130BC060914E027091F7
:100B80004F02E0914B02F0914C0289E492E009950A
:100B90000E948D0198CE461657066806790608F021
:100BA0009DCFA4CFA1E21A2EAA1BBB1BFD010DC035
:100BB000AA1FBB1FEE1FFF1FA217B307E407F5070D
:100BC00020F0A21BB30BE40BF50B661F771F881FE9
:100BD000991F1A9469F760957095809590959B017F
:100BE000AC01BD01CF010895EE0FFF1F0590F491F8
:100BF000E02D09940F931F93CF93DF9382309105DB
:100C000010F482E090E0E0915402F091550220E06F
:100C100030E0A0E0B0E0309719F1408151810281CD
:100C2000138148175907C8F08417950769F410977E
:100C300031F012960C93129713961C9327C00093D1
:100C400054021093550222C02115310519F04217A4
:100C5000530718F49A01BD01EF01DF01F801DBCF62
:100C600021153105F9F0281B390B2430310580F4AA
:100C70008A819B816115710521F0FB019383828339
:100C800004C09093550280935402FE01329644C0F2
:100C9000FE01E20FF31F81939193225031093983B2
:100CA00028833AC02091520230915302232B41F401
:100CB000209102013091030130935302209352029C
:100CC00020910001309101012115310541F42DB72A
:100CD0003EB74091040150910501241B350BE09172
:100CE0005202F0915302E217F307A0F42E1B3F0BC0
:100CF0002817390778F0AC014E5F5F4F241735078E
:100D000048F04E0F5F1F509353024093520281935D
:100D1000919302C0E0E0F0E0CF01DF91CF911F910D
:100D20000F910895CF93DF93009709F481C0FC01E0
:100D3000329713821282A0915402B09155021097FB
:100D400081F420813181820F931F209152023091D2
:100D500053022817390751F5F0935302E0935202DA
:100D600067C0ED0120E030E0CE17DF0740F44A8194
:100D70005B819E0141155105F1F0EA01F5CFD38366
:100D8000C28340815181840F951FC817D90759F438
:100D900088819981840F951F0296918380838A812F
:100DA0009B81938382832115310529F4F0935502A9
:100DB000E09354023DC0E901FB83EA8349915991D4
:100DC000C40FD51FEC17FD0761F480819181840F5A
:100DD000951F0296E90199838883828193819B8381
:100DE0008A83E0E0F0E012968D919C911397009732
:100DF00019F0FD01DC01F7CF8D919C9111979D01B8
:100E00002E5F3F4F820F931F209152023091530269
:100E10002817390769F4309729F410925502109277
:100E2000540202C013821282B0935302A093520262
:100E3000DF91CF91089581E090E0F8940C94200721
:040E4000F894FFCF54
:100E4400000056028000000000001E018700B5006B
:100E54006B01E600C400D800564D4450565F317C07
:100E6400315F564D4450560D0A00496E666F3A2064
:100E740000436F726520496E697469616C697A65B3
:100E84006400564D4450455F003A323A007C005F9E
:060E9400564D44504500DC
:00000001FF
