:100000000C9435000C945D000C945D000C945D0024
:100010000C945D000C945D000C945D000C945D00EC
:100020000C945D000C945D000C945D000C945D00DC
:100030000C945D000C945D000C945D000C945D00CC
:100040000C94CB010C945D000C943B020C941502B3
:100050000C945D000C945D000C945D000C945D00AC
:100060000C945D000C945D006D0211241FBECFEF57
:10007000D8E0DEBFCDBF22E0A0E3B2E001C01D9218
:10008000A43EB207E1F712E0A0E0B1E0E6E2FAE058
:1000900002C005900D92A033B107D9F710E0C5E377
:1000A000D0E004C02197FE010E94E503C433D107CC
:1000B000C9F70E94A7020C9411050C940000CF927E
:1000C000DF92EF92FF920F931F93CF93DF936C0118
:1000D0007A018B01C0E0D0E0CE15DF0581F0D801B8
:1000E0006D918D01D601ED91FC910190F081E02D93
:1000F000C6010995892B11F02196EECF7E01C7012B
:10010000DF91CF911F910F91FF90EF90DF90CF90F3
:100110000895089580E090E00895FC01538D448D8A
:10012000252F30E0842F90E0821B930B541710F0A2
:10013000CF96089501970895FC01918D828D9817AF
:1001400061F0828DDF01A80FB11D5D968C91928DBB
:100150009F5F9F73928F90E008958FEF9FEF0895B8
:10016000EF92FF920F931F93CF93DF938B017C014C
:10017000C0E0D0E0C017D10709F444C02FB7F8940D
:100180008091350290913602A0913702B0913802E9
:100190002FBF8093410290934202A0934302B093F9
:1001A000440289E392E00E949C0097FF26C02FB78B
:1001B000F8948091350290913602A0913702B09167
:1001C00038022FBF40914102509142026091430298
:1001D00070914402841B950BA60BB70B40913D0216
:1001E00050913E0260913F02709140028417950742
:1001F000A607B707B0F28E0105C0F70181937F0112
:100200002196B8CFC801DF91CF911F910F91FF9038
:10021000EF900895FC01918D828D981731F0828DB9
:10022000E80FF11D858D90E008958FEF9FEF089501
:10023000FC01918D228D892F90E0805C9F4F821B65
:1002400091098F739927089589E392E00E9418011C
:1002500021E0892B09F420E0822F0895FC01848D90
:10026000DF01A80FB11DA35ABF4F2C91848D90E0E0
:1002700001968F739927848FA689B7892C93A089BB
:10028000B1898C91837080648C93938D848D981345
:1002900006C00288F389E02D80818F7D80830895D8
:1002A000EF92FF920F931F93CF93DF93EC0181E0C6
:1002B000888F9B8D8C8D981305C0E889F989808182
:1002C00085FD26C0F62E0B8D10E00F5F1F4F0F73BC
:1002D0001127E02E8C8DE8120CC00FB607FCFACF68
:1002E000E889F989808185FFF5CFCE010E942E0132
:1002F000F1CF8B8DFE01E80FF11DE35AFF4FF08225
:100300009FB7F8940B8FEA89FB89808180620AC0CD
:100310009FB7F894EE89FF896083E889F989808125
:100320008370806480839FBF81E090E0DF91CF91F4
:100330001F910F91FF90EF900895CF93DF93EC0101
:10034000888D8823C9F0EA89FB89808185FD05C0F5
:10035000A889B9898C9186FD0FC00FB607FCF5CF2F
:10036000808185FFF2CFA889B9898C9185FFEDCF77
:10037000CE010E942E01E7CFDF91CF91089580E05A
:1003800090E0892B29F00E94240181110C94000037
:1003900008950E940C051F920F920FB60F92112420
:1003A0002F933F938F939F93AF93BF938091350289
:1003B00090913602A0913702B09138023091340208
:1003C00023E0230F2D3720F40196A11DB11D05C098
:1003D00026E8230F0296A11DB11D209334028093BD
:1003E000350290933602A0933702B0933802809181
:1003F000300290913102A0913202B0913302019605
:10040000A11DB11D8093300290933102A09332025E
:10041000B0933302BF91AF919F918F913F912F91F4
:100420000F900FBE0F901F9018951F920F920FB64E
:100430000F9211242F933F934F935F936F937F936A
:100440008F939F93AF93BF93EF93FF9389E392E0D2
:100450000E942E01FF91EF91BF91AF919F918F91DB
:100460007F916F915F914F913F912F910F900FBEB0
:100470000F901F9018951F920F920FB60F92112494
:100480002F938F939F93EF93FF93E0914902F09105
:100490004A028081E0914F02F091500282FD12C029
:1004A0009081809152028F5F8F7320915302821747
:1004B00051F0E0915202F0E0E75CFD4F958F8093A0
:1004C000520201C08081FF91EF919F918F912F91F6
:1004D0000F900FBE0F901F901895E9E3F2E0138282
:1004E000128288EE93E0A0E0B0E084839583A68337
:1004F000B7838AE092E09183808385EC90E09587D2
:10050000848784EC90E09787868780EC90E0918BDD
:10051000808B81EC90E0938B828B82EC90E0958BCA
:10052000848B86EC90E0978B868B118E128E138EC7
:10053000148EE7EDF2E081E0808311821382128253
:1005400086ED92E096838583908787830895CF9385
:10055000DF931F92CDB7DEB7789484B5826084BDF7
:1005600084B5816084BD85B5826085BD85B58160B7
:1005700085BD80916E00816080936E001092810035
:1005800080918100826080938100809181008160F0
:1005900080938100809180008160809380008091B1
:1005A000B10084608093B1008091B000816080933D
:1005B000B00080917A00846080937A0080917A0004
:1005C000826080937A0080917A00816080937A00C3
:1005D00080917A00806880937A001092C100E09147
:1005E0004902F0914A0282E08083E0914502F09155
:1005F00046021082E0914702F091480280E1808338
:1006000010925102E0914D02F0914E0216E01083DB
:10061000E0914B02F0914C02808180618083E091F7
:100620004B02F0914C02808188608083E0914B0204
:10063000F0914C02808180688083E0914B02F091C0
:100640004C0280818F7D808387E190E00E94EB03E4
:100650007C01E8E1F2E0DC0101900D921A95E1F7EE
:10066000DC01169681E1EFE1F2E001900D928A95AE
:10067000E1F787E090E00E94EB036C01F701019045
:100680000020E9F731973F016E187F0888E6582E61
:10069000D6015C9211966C9211971396FC92EE9291
:1006A00012975301BB244501B3E08B0E911CC4018A
:1006B0000E94EB038C01FC0160825182DC011296E6
:1006C000F701CF018E199F098A159B051CF48191B2
:1006D0008D93F7CFC5010296800F911FD801E0E0FE
:1006E000A817B90738F42D91E227F0E0EA5FFE4F32
:1006F000E081F6CFD6011496EC93D801AA0DBB1D6C
:100700001296EC93F60116830583A401B80189E3E0
:1007100092E00E945F00C114D10449F00115110557
:1007200019F0C8010E948304C6010E948304C70116
:100730000E94830489E392E00E94180118161906AA
:100740000CF040C061E070E0CE0101960E94B00064
:10075000D980ED2CF12CC70104960E94EB038C018B
:10076000DC01DD92CD01B7016D5F7F4F0E94B000CB
:1007700087E090E00E94EB03DC01F8019081119684
:100780009C93119781818C9398012E5F3F4F139614
:100790003C932E931297E90FF11D928114969C932E
:1007A0001497AB2B79F09091D70298130BC06091FE
:1007B000DC027091DD02E091D902F091DA0287ED5E
:1007C00092E009950E94BF01B5CFEE0FFF1F059083
:1007D000F491E02D09940F931F93CF93DF93823010
:1007E000910510F482E090E0E091E202F091E302E2
:1007F00020E030E0A0E0B0E0309719F14081518175
:100800000281138148175907C8F08417950769F4C6
:10081000109731F012960C93129713961C9327C0E1
:100820000093E2021093E30222C02115310519F072
:100830004217530718F49A01BD01EF01DF01F801D7
:10084000DBCF21153105F9F0281B390B2430310598
:1008500080F48A819B816115710521F0FB019383EE
:10086000828304C09093E3028093E202FE013296F9
:1008700044C0FE01E20FF31F81939193225031098E
:10088000398328833AC02091E0023091E102232B82
:1008900041F420910201309103013093E102209351
:1008A000E00220910001309101012115310541F450
:1008B0002DB73EB74091040150910501241B350B23
:1008C000E091E002F091E102E217F307A0F42E1BA1
:1008D0003F0B2817390778F0AC014E5F5F4F2417A4
:1008E000350748F04E0F5F1F5093E1024093E0023E
:1008F0008193919302C0E0E0F0E0CF01DF91CF91CE
:100900001F910F910895CF93DF93009709F481C051
:10091000FC01329713821282A091E202B091E302AD
:10092000109781F420813181820F931F2091E00282
:100930003091E1022817390751F5F093E102E09375
:10094000E00267C0ED0120E030E0CE17DF0740F4A1
:100950004A815B819E0141155105F1F0EA01F5CF15
:10096000D383C28340815181840F951FC817D90753
:1009700059F488819981840F951F02969183808311
:100980008A819B81938382832115310529F4F09319
:10099000E302E093E2023DC0E901FB83EA8349916F
:1009A0005991C40FD51FEC17FD0761F48081918127
:1009B000840F951F0296E901998388838281938130
:1009C0009B838A83E0E0F0E012968D919C911397CF
:1009D000009719F0FD01DC01F7CF8D919C911197E3
:1009E0009D012E5F3F4F820F931F2091E0023091B7
:1009F000E1022817390769F4309729F41092E302CD
:100A00001092E20202C013821282B093E102A0931C
:100A1000E002DF91CF91089581E090E0F8940C948A
:060A20001105F894FFCF60
:100A26000000E402800000070E091C1B1215383F67
:100A3600363124232A2D70777E796C6B6265484F98
:100A4600464154535A5DE0E7EEE9FCFBF2F5D8DF88
:100A5600D6D1C4C3CACD90979E998C8B8285A8AFF8
:100A6600A6A1B4B3BABDC7C0C9CEDBDCD5D2FFF8E8
:100A7600F1F6E3E4EDEAB7B0B9BEABACA5A28F8858
:100A8600818693949D9A2720292E3B3C35321F1848
:100A9600111603040D0A5750595E4B4C45426F68B8
:100AA600616673747D7A898E878095929B9CB1B6B8
:100AB600BFB8ADAAA3A4F9FEF7F0E5E2EBECC1C618
:100AC600CFC8DDDAD3D4696E676075727B7C515608
:100AD6005F584D4A4344191E171005020B0C212678
:100AE6002F283D3A33344E49404752555C5B767168
:100AF600787F6A6D64633E39303722252C2B0601D8
:100B0600080F1A1D1413AEA9A0A7B2B5BCBB9691C7
:100B1600989F8A8D8483DED9D0D7C2C5CCCBE6E137
:100B2600E8EFFAFDF4F30000000050015F008D00CD
:100B36009D0118019C000A01496E666F3A20004328
:100B46006F726520496E697469616C697A656400C3
:00000001FF
