:100000000C9472000C949A000C949A000C949A0030
:100010000C949A000C949A000C949A000C949A00F8
:100020000C949A000C949A000C949A000C949A00E8
:100030000C949A000C949A000C949A000C949A00D8
:100040000C94AA040C949A000C94D90A0C94B30A48
:100050000C949A000C949A000C949A000C949A00B8
:100060000C949A000C949A0078017E0184018A0114
:10007000900196019C0105030C0313031A0321034D
:100080003803280338032F03000000002300260054
:10009000290000000000240027002A0000000000C2
:1000A000250028002B0004040404040404040202B4
:1000B00002020202030303030303010204081020E7
:1000C00040800102040810200102040810200000F2
:1000D0000008000201000003040700000000000007
:1000E00000000B0B11241FBECFEFD8E0DEBFCDBF49
:1000F00024E0A6EAB2E001C01D92A236B207E1F701
:1001000012E0A0E0B1E0E4EFF0E202C005900D9251
:10011000A63AB107D9F710E0C2E7D0E004C02197B2
:10012000FE010E94210FC137D107C9F70E942D0C93
:100130000C9478100C940000FC01538D448D252FF5
:1001400030E0842F90E0821B930B541710F0CF9671
:10015000089501970895FC01918D828D981761F0A3
:10016000828DDF01A80FB11D5D968C91928D9F5FEE
:100170009F73928F90E008958FEF9FEF0895FC0199
:10018000918D828D981731F0828DE80FF11D858D4C
:1001900090E008958FEF9FEF0895FC01918D228DDF
:1001A000892F90E0805C9F4F821B91098F73992764
:1001B000089580E090E0892B29F00E94E2088111E7
:1001C0000C9400000895833081F028F4813099F078
:1001D0008230A1F008958730A9F08830B9F08430DA
:1001E000D1F4809180008F7D03C0809180008F7753
:1001F00080938000089584B58F7702C084B58F7D89
:1002000084BD08958091B0008F7703C08091B000C5
:100210008F7D8093B00008951F93CF93DF93282F95
:1002200030E0F901E253FF4F8491F901E654FF4FAA
:10023000D491F901EA55FF4FC491CC23C1F0162F98
:1002400081110E94E300EC2FF0E0EE0FFF1FE45657
:10025000FF4FA591B4919FB7F894111104C08C91F0
:10026000D095D82302C0EC91DE2BDC939FBFDF91A9
:10027000CF911F9108953FB7F8948091A702909174
:10028000A802A091A902B091AA0226B5A89B05C018
:100290002F3F19F00196A11DB11D3FBFBA2FA92F05
:1002A000982F8827820F911DA11DB11DBC01CD0182
:1002B00042E0660F771F881F991F4A95D1F708956E
:1002C000CF93DF934770552766277727FA01319739
:1002D000EC01A881B981E730F10520F4EC5CFF4F17
:1002E0000C94210F1496ED91FC91159761E029C0B3
:1002F0001496ED91FC91159765E023C01496ED914D
:10030000FC91159764E01DC01496ED91FC91159732
:1003100066E017C01496ED91FC91159762E011C04C
:100320001496ED91FC9115976AE00BC01496ED912F
:10033000FC91159768E005C01496ED91FC91159716
:1003400069E0DF91CF910994CF93DF93EC01CB016A
:10035000BA0126E030E040E050E00E94020F623037
:1003600071058105910559F18CF4611571058105BF
:100370009105F1F06130710581059105C1F5E881C4
:10038000F9810480F581E02D65E02DC064307105B0
:100390008105910511F1D4F0653071058105910554
:1003A00031F5E881F9810480F581E02D66E01BC01C
:1003B000E881F9810480F581E02D64E014C0E881D2
:1003C000F9810480F581E02D61E00DC0E881F981BB
:1003D0000480F581E02D63E006C0E881F9810480A6
:1003E000F581E02D62E0CE01DF91CF910994DF919C
:1003F000CF9108954370552766277727DC01ED914B
:10040000FC910480F581E02D4230510561057105B4
:1004100071F0433051056105710559F041305105C6
:100420006105710511F065E005C066E003C06AE092
:1004300001C069E00994CF93DF93EC01CB01BA01CD
:1004400023E030E040E050E00E94020F613071058F
:100450008105910581F0623071058105910591F06A
:10046000672B682B692BC1F4E881F9810480F58141
:10047000E02D64E00DC0E881F9810480F581E02D74
:1004800061E006C0E881F9810480F581E02D62E039
:10049000CE01DF91CF910994DF91CF910895437000
:1004A000552766277727DC01ED91FC910480F581C3
:1004B000E02D423051056105710571F04330510561
:1004C0006105710559F0413051056105710511F063
:1004D00062E005C063E003C061E001C060E0099430
:1004E000CF93DF93EC01E881F9810480F581E02D61
:1004F0008A81811102C060E001C062E0CE010995ED
:10050000E881F9810480F581E02D8A81811102C0A2
:1005100061E001C063E0CE0109958CA59DA5823004
:10052000910538F0880F991F880F991F059701973B
:10053000F1F7E881F9810480F581E02D8A8181114C
:1005400002C060E001C062E0CE01DF91CF9109946A
:10055000CF93DF93EC0120E030E0A9016C897D8925
:100560008E899F890E94FD0E18161CF4E8A9F9A92E
:1005700002C0EAA9FBA9DF91CF910994CF92DF9243
:10058000EF92FF920F931F93CF93DF93EC019B8128
:10059000943041F0983031F0933031F0963021F0C2
:1005A00012E003C014E001C013E02496E12CF12C0A
:1005B000C62ED12C01E0C6010E2C02C09595879560
:1005C0000A94E2F76C8180FD602789910E940C01FA
:1005D0008FEFE81AF80AE11670F3DF91CF911F91BF
:1005E0000F91FF90EF90DF90CF9008950F931F939E
:1005F000DC011396EC910E2F10E009301105C0F5C7
:10060000F801E55CFF4F0C94210FDC01ED91FC91AA
:100610000084F185E02D29C0DC01ED91FC9102847C
:10062000F385E02D22C0DC01ED91FC910484F58579
:10063000E02D1BC0DC01ED91FC910684F785E02DD7
:1006400014C0DC01ED91FC910088F189E02D0DC012
:10065000DC01ED91FC910288F389E02D06C0DC01FC
:10066000ED91FC910488F589E02D1F910F9109947B
:100670001F910F910895CF92DF92EF92FF920F9307
:100680001F93CF93DF938C01C62ED42E7901DC010A
:100690006C9311964C93C42FD0E0CE0103960E9428
:1006A000490FFC01D082C182AC014E5F5F4FDA017D
:1006B000F7019F012E193F092C173D071CF42191CA
:1006C0002D93F7CFBE016E5F7F4F680F791FDC015E
:1006D000E0E0A617B70738F42D91E227F0E0EA5FD3
:1006E000FE4FE081F6CFD8011496EC931497C80F13
:1006F000D91FEA8313965C934E93129716969C9398
:100700008E931597DF91CF911F910F91FF90EF90EE
:10071000DF90CF900895FF920F931F93CF93DF93B5
:100720001F92CDB7DEB7F62E498387E090E00E9496
:10073000490F8C019E012F5F3F4F41E06F2D0E94BA
:100740003B03F801418150E04D5F5F4F6581768149
:100750008FEA92E00E94B4080115110551F0F801EA
:1007600085819681009711F00E94E10FC8010E94D7
:10077000E10F0F90DF91CF911F910F91FF9008959E
:10078000FC01848DDF01A80FB11DA35ABF4F2C912E
:10079000848D90E001968F739927848FA689B789FD
:1007A0002C93A089B1898C91837080648C93938DF4
:1007B000848D981306C00288F389E02D80818F7D97
:1007C00080830895CF93DF9390E0FC01E654FF4FC0
:1007D0002491FC01EA55FF4F8491882361F190E058
:1007E000880F991FFC01EE56FF4FC591D491FC0173
:1007F000E456FF4FA591B491611109C09FB7F894D9
:100800008881209582238883EC912E230BC062304F
:1008100061F49FB7F8948881322F309583238883C1
:10082000EC912E2B2C939FBF06C08FB7F894E881D4
:100830002E2B28838FBFDF91CF910895CF93DF9325
:10084000FC012381222359F1EC0161E084810E94A3
:10085000E20361E08D810E94E2038B81843011F01C
:10086000883039F461E08E810E94E20361E08F817B
:1008700006C0833011F0863021F461E08E810E9441
:10088000E2038FA58F3F59F061E00E94E2036EA55D
:1008900081E068278FA5DF91CF910C940C01DF9147
:1008A000CF910895CF93DF93FC0123812223A9F0F8
:1008B000EC010190F081E02D0480F581E02D60E0F5
:1008C00009958FA58F3F49F061E00E94E2036EA574
:1008D0008FA5DF91CF910C940C01DF91CF910895FA
:1008E0008F929F92AF92BF92CF92DF92EF92FF9240
:1008F0006B017C010E943B014B015C01C114D104DE
:10090000E104F104F1F00E943B01DC01CB01881904
:100910009909AA09BB09883E9340A105B10570F366
:1009200021E0C21AD108E108F10888EE880E83E0C0
:10093000981EA11CB11CC114D104E104F10419F7E3
:10094000DDCFFF90EF90DF90CF90BF90AF909F9062
:100950008F9008951F920F920FB60F9211242F932C
:100960003F938F939F93AF93BF938091AB029091EE
:10097000AC02A091AD02B091AE023091A60223E08C
:10098000230F2D3720F40196A11DB11D05C026E8C7
:10099000230F0296A11DB11D2093A6028093AB02E6
:1009A0009093AC02A093AD02B093AE028091A702E7
:1009B0009091A802A091A902B091AA020196A11D4E
:1009C000B11D8093A7029093A802A093A902B093AF
:1009D000AA02BF91AF919F918F913F912F910F905C
:1009E0000FBE0F901F9018954F925F926F927F925B
:1009F0008F929F92AF92BF92CF92DF92EF92FF922F
:100A00000F931F93CF93DF93EC01C888D988EA88AE
:100A1000FB888C859D85AE85BF85C81AD90AEA0AF0
:100A2000FB0A6C897D898E899F899B01AC010E949C
:100A30002A0D4B015C016C8D7D8D8E8D9F8D9B01F0
:100A4000AC010E94E90D9B01AC01C501B4010E94FB
:100A5000550E0E94C70EC114D104E104F10499F4AB
:100A600062307105810591050CF076C01CA21DA2B3
:100A70001EA21FA21C8A1D8A1E8A1F8A1CAA1DAACA
:100A80001EAA1FAAEDC00CA91DA92EA93FA91C14BE
:100A90001D041E041F04FCF4101611061206130692
:100AA0004CF46C157D058E059F054CF52A812111AE
:100AB00053C025C0011511052105310509F44CC0AD
:100AC0006C157D058E059F050CF046C08A81882334
:100AD00009F442C036C01016110612061306ECF4D3
:100AE0000027112798010C191D092E093F096017CD
:100AF0007107820793071CF42A81222369F19B0165
:100B0000AC0188279927DC01821B930BA40BB50B42
:100B10008CAB9DABAEABBFAB1FC001151105210562
:100B20003105D1F08824992454018C189D08AE0811
:100B3000BF08681579058A059B0574F48A818111BF
:100B40000BC030952095109501951F4F2F4F3F4FAB
:100B50000CAB1DAB2EAB3FAB8CA89DA8AEA8BFA81D
:100B600081149104A104B10489F488AD99ADAAADB2
:100B7000BBAD8CAF9DAFAEAFBFAF81E01C141D0409
:100B80001E041F040CF080E08A833FC0CCACDDACB7
:100B9000EEACFFACA7019601C701B6010E94E90DBA
:100BA0002B013C01C501B4010E94CB0C20E030E0D8
:100BB00040E850E40E942A0D20E030E040E85FE386
:100BC0000E94E90D9B01AC01C301B2010E94550EC8
:100BD0009B01AC01C701B6010E94E80D3B016C010D
:100BE000FE01E05CFF4FE080F180028113819701FC
:100BF000A8010E94FD0E181614F473018601C701A6
:100C0000D8018CAF9DAFAEAFBFAF3FEF831A930A51
:100C1000A30AB30A8CAA9DAAAEAABFAACCACDDAC2B
:100C2000EEACFFACC701B6010E94CE0E6CA37DA353
:100C30008EA39FA3A701960160E074E284E799E484
:100C40000E94550E6C8B7D8B8E8B9F8B2A81211180
:100C500007C0DC01CB01B0588C8B9D8BAE8BBF8B5A
:100C6000DF91CF911F910F91FF90EF90DF90CF9088
:100C7000BF90AF909F908F907F906F905F904F90BC
:100C80000895EF92FF920F931F93CF93DF937B0111
:100C9000FB0101900020E9F73197EF01C61BD70B4C
:100CA000CE0107960E94490F8C0186E0E2E3F2E054
:100CB000D80101900D928A95E1F7AE014F5F5F4F29
:100CC000B701C80106960E946F1087E090E00E946D
:100CD000490FEC01F80101900020E9F73197AF01CD
:100CE000401B510B980168E60E943B03498150E08C
:100CF0004D5F5F4F6D817E818FEA92E00E94B40864
:100D0000209749F08D819E81009711F00E94E10F9C
:100D1000CE010E94E10FC801DF91CF911F910F9189
:100D2000FF90EF900C94E10F0F931F93CF93DF93FD
:100D3000EC018B0169E372E0815F9E4F0E944106E6
:100D4000C35FDE4F81E0888340E067E6C801DF9142
:100D5000CF911F910F910C948B030F931F93CF93FF
:100D6000DF93EC018B016FE472E0815F9E4F0E9484
:100D70004106C35FDE4F188240E066E6C801DF919E
:100D8000CF911F910F910C948B030F931F93CF93CF
:100D9000DF93EC018B0164E672E0815F9E4F0E945D
:100DA0004106C25FDE4F488165E6C801DF91CF9101
:100DB0001F910F910C948B038F929F92AF92BF92D1
:100DC000CF92DF92EF92FF920F931F93CF93DF9317
:100DD0001F92CDB7DEB76C018FEA92E00E94CD0082
:100DE000181619060CF059C061E070E0CE010196AA
:100DF0000E94590AB9800B2D10E0C80104960E9488
:100E0000490F7C01DC01BD92CD01B8016E5F7F4FBF
:100E10000E94590A87E090E00E94490F8C01F70177
:100E20008081D80111968C93119791819C939701A1
:100E30002E5F3F4F13963C932E931297E80FF11DB0
:100E4000828114968C930115110539F16BE772E0DC
:100E5000C601815F9E4F0E94410676015601BCE0AB
:100E6000AB0EB11C4601E5EF8E1AEEEF9E0AEA14B6
:100E7000FB0499F0D8019C91F7018081981309C077
:100E8000D4016D917C910180F281E02DA801C60111
:100E90000995B3E0EB0EF11CEACF0F90DF91CF91F3
:100EA0001F910F91FF90EF90DF90CF90BF90AF9088
:100EB0009F908F9008956F927F928F929F92AF92A2
:100EC000BF92CF92DF92EF92FF920F931F93CF9337
:100ED000DF93EC017B016A016BE872E0815F9E4F5A
:100EE0000E944106FE01E35FFE4F8081811102C036
:100EF00044E008C08E01065F1E4FD8018C91882304
:100F000099F045E068E7C701DF91CF911F910F91FC
:100F1000FF90EF90DF90CF90BF90AF909F908F9019
:100F20007F906F900C948B0381E0F8018083D60151
:100F30001296ED91FC9113978081811102C060E0BF
:100F400001C061E084E00E940C0161E085E00E9444
:100F50000C0190EDC92E90E0D92E2CEBA22E20E0B2
:100F6000B22E38EA832E30E0932EF6018491F501FB
:100F70007490F4016490662071F081110E94E30086
:100F8000E62DF0E0EE0FFF1FE857FF4FA591B4915B
:100F90008C91782251F4CE010E94DC0664E670E068
:100FA00080E090E00E947004E0CF60E085E00E9465
:100FB0000C0140E068E7C7010E948B03D8011C9236
:100FC000DF91CF911F910F91FF90EF90DF90CF9025
:100FD000BF90AF909F908F907F906F900895CF9328
:100FE000DF93FC01DB0112968C911297828313969A
:100FF0008C9113978383BF016C5F7F4FCD01049663
:101000009F01285F3F4FEC014991CE01EB014993CD
:10101000BE01C217D307B9F7CD0108969F01245F1F
:101020003F4FEC014991CE01EB014993BE012C17D2
:101030003D07B9F71C964D915D916D917C911F977D
:10104000448755876687778750964D915D916D915E
:101050007C915397408B518B628B738B54964D913F
:101060005D916D917C915797448B558B668B778BF7
:1010700058964D915D916D917C915B97408F518F0A
:10108000628F738F5C964D915D916D917C915F97AE
:10109000448F558F668F778F90964D915D916D91AE
:1010A0007C91939740A351A362A373A394964D910F
:1010B0005D916D917C91979744A355A366A377A307
:1010C00098964D915D916D917C919B9740A751A70A
:1010D00062A773A79C968D919C919D9795A784A7D5
:1010E0009E968C919E9786A79F968C919F9787A797
:1010F000D0968D919C91D19791AB80ABD2968D91EA
:101100009C91D39793AB82ABD4964D915D916D91A9
:101110007C91D79744AB55AB66AB77ABD8964D91E6
:101120005D916D917C91DB9740AF51AF62AF73AF32
:10113000DC964D915D916D917C91DF9744AF55AFF9
:1011400066AF77AFA05CBF4F4D915D916D917C9183
:10115000DF01A05CBF4F4D935D936D937C9313971C
:10116000CF01DF91CF910895CF92DF92EF92FF925E
:101170000F931F93CF93DF936C017A018B01C0E033
:10118000D0E0CE15DF0581F0D8016D918D01D6013B
:10119000ED91FC910190F081E02DC6010995892B1C
:1011A00011F02196EECF7E01C701DF91CF911F9103
:1011B0000F91FF90EF90DF90CF900895089580E019
:1011C00090E008958FEA92E00E94CD0021E0892B03
:1011D00009F420E0822F0895CF92DF92EF92FF92E0
:1011E000CF93DF93EC0120E030E04AEF54E4688DC8
:1011F000798D8A8D9B8D0E94C40C882309F443C08D
:1012000080E090E0AAEFB4E4888F998FAA8FBB8F1B
:1012100080E090E0AAEFB3E4FE01E05CFF4F808342
:101220009183A283B3838CA99DA9AEA9BFA91816E7
:1012300019061A061B063CF56C897D898E899F89E3
:101240009B01AC010E942A0D6B017C016C8D7D8D90
:101250008E8D9F8D9B01AC010E94E90D9B01AC011D
:10126000C701B6010E94550E0E94C70E6CAB7DAB44
:101270008EAB9FABCE01DF91CF91FF90EF90DF90CF
:10128000CF900C94F404DF91CF91FF90EF90DF901A
:10129000CF9008958F929F92AF92BF92CF92DF929C
:1012A000EF92FF92CF93DF93EC018AE092E0998373
:1012B00088836B831C861D861E861F86188A198A62
:1012C0001A8A1B8A1C8A1D8A1E8A1F8AC12CD12C4D
:1012D00080E8E82E8FE3F82EC88ED98EEA8EFB8E3A
:1012E0001C8E1D8E1E8E1F8EC8A2D9A2EAA2FBA242
:1012F0001CA21DA21EA21FA281E090E09DA78CA7A8
:101300008FEF8FA718A619A61AA61BA64C832D83AC
:1013100084E08E8385E08F831EA61CAA1DAA1EAAC8
:101320001FAA18AE19AE1AAE1BAE1CAE1DAE1EAE75
:101330001FAEFE01E05CFF4FC082D182E282F382E9
:101340001A82188619861A861B86CE010E941E04F0
:101350008C8C9D8CAE8CBF8CA7019601C501B4010D
:101360000E94C40C882349F16CA97DA98EA99FA96C
:101370000E94CB0CA50194010E942A0D0E94C70E69
:101380006CAB7DAB8EAB9FAB86E896E6A9E6B9E485
:1013900088AF99AFAAAFBBAFCC8EDD8EEE8EFF8E3D
:1013A000CE01DF91CF91FF90EF90DF90CF90BF9073
:1013B000AF909F908F900C94F404DF91CF91FF90A9
:1013C000EF90DF90CF90BF90AF909F908F90089557
:1013D0000E946A10EF92FF920F931F93CF93DF93B7
:1013E000EC0181E0888F9B8D8C8D981305C0E88976
:1013F000F989808185FD26C0F62E0B8D10E00F5FE8
:101400001F4F0F731127E02E8C8DE8120CC00FB602
:1014100007FCFACFE889F989808185FFF5CFCE01F5
:101420000E94C003F1CF8B8DFE01E80FF11DE35A3E
:10143000FF4FF0829FB7F8940B8FEA89FB89808178
:1014400080620AC09FB7F894EE89FF896083E889BB
:10145000F98980818370806480839FBF81E090E000
:10146000DF91CF911F910F91FF90EF900895CF934F
:10147000DF93EC01888D8823C9F0EA89FB8980819C
:1014800085FD05C0A889B9898C9186FD0FC00FB66E
:1014900007FCF5CF808185FFF2CFA889B9898C91AF
:1014A00085FFEDCFCE010E94C003E7CFDF91CF9142
:1014B0000895EF92FF920F931F93CF93DF938B01C9
:1014C0007C01C0E0D0E0C017D10709F444C02FB7B9
:1014D000F8948091AB029091AC02A091AD02B091D2
:1014E000AE022FBF8093B7029093B802A093B902C7
:1014F000B093BA028FEA92E00E94AB0097FF26C039
:101500002FB7F8948091AB029091AC02A091AD02FC
:10151000B091AE022FBF4091B7025091B8026091D6
:10152000B9027091BA02841B950BA60BB70B4091C0
:10153000B3025091B4026091B5027091B602841763
:101540009507A607B707B0F28E0105C0F701819392
:101550007F012196B8CFC801DF91CF911F910F91E4
:10156000FF90EF9008951F920F920FB60F921124E3
:101570002F933F934F935F936F937F938F939F939B
:10158000AF93BF93EF93FF938FEA92E00E94C00363
:10159000FF91EF91BF91AF919F918F917F916F914B
:1015A0005F914F913F912F910F900FBE0F901F9021
:1015B00018951F920F920FB60F9211242F938F93AD
:1015C0009F93EF93FF93E091BF02F091C00280815F
:1015D000E091C502F091C60282FD12C09081809117
:1015E000C8028F5F8F732091C902821751F0E0917A
:1015F000C802F0E0E155FD4F958F8093C80201C00D
:101600008081FF91EF919F918F912F910F900FBE4D
:101610000F901F901895CF93DF93CDB7DEB7C454CA
:10162000D1090FB6F894DEBF0FBECDBF1092B20243
:101630001092B10288EE93E0A0E0B0E08093B30294
:101640009093B402A093B502B093B60284E292E004
:101650009093B0028093AF0285EC90E09093BC022F
:101660008093BB0284EC90E09093BE028093BD0215
:1016700080EC90E09093C0028093BF0281EC90E0F8
:101680009093C2028093C10282EC90E09093C402D6
:101690008093C30286EC90E09093C6028093C502CB
:1016A0001092C8021092C9021092CA021092CB0284
:1016B00081E080934D0385EC96E090934F038093F7
:1016C0004E0382E0809350038DEA96E0909352039C
:1016D0008093510383E08093530384E996E09093D1
:1016E00055038093540384E1809356038BE597E080
:1016F000909358038093570323E042E064E089E528
:1017000093E00E944A0923E042E064E08DE993E01F
:101710000E944A0923E042E064E081EE93E00E94E7
:101720004A09109239041092420410924304109214
:10173000440481E090E0A0E0B0E0809349049093FD
:101740004A04A0934B04B0934C0480934D049093AF
:101750004E04A0934F04B09350048093450490939B
:101760004604A0934704B093480410925204109288
:101770005104109254041092530410925604109283
:10178000550425E042E061E0CE0101960E944A093D
:10179000BE016F5F7F4F89E593E00E94EF0726E06F
:1017A00043E061E0CE0101960E944A09BE016F5FED
:1017B0007F4F8DE993E00E94EF0727E044E061E06E
:1017C000CE0101960E944A09BE016F5F7F4F81EEF4
:1017D00093E00E94EF0789E593E00E94EC088DE911
:1017E00093E00E94EC08E0913904EA3068F481E06B
:1017F0008E0F80933904F0E0EE0FFF1FEB5DFB4F7F
:1018000089E593E091838083E0913904EA3068F4BC
:1018100081E08E0F80933904F0E0EE0FFF1FEB5D47
:10182000FB4F8DE993E091838083109257048CE401
:1018300093E0909359048093580410925A04909323
:101840005D0480935C04CC5BDF4F0FB6F894DEBF81
:101850000FBECDBFDF91CF910895789484B582609B
:1018600084BD84B5816084BD85B5826085BD85B544
:10187000816085BD80916E00816080936E001092C2
:10188000810080918100826080938100809181003D
:1018900081608093810080918000816080938000CE
:1018A0008091B10084608093B1008091B00081602C
:1018B0008093B00080917A00846080937A00809158
:1018C0007A00826080937A0080917A0081608093B0
:1018D0007A0080917A00806880937A001092C1002B
:1018E00061E085E00E94E20361E084E00E94E2039F
:1018F00060E082E00E94E203E091BF02F091C0024A
:1019000082E08083E091BB02F091BC021082E09102
:10191000BD02F091BE0280E180831092C702E09187
:10192000C302F091C40286E08083E091C102F0918D
:10193000C202808180618083E091C102F091C20285
:10194000808188608083E091C102F091C202808131
:1019500080688083E091C102F091C20280818F7D16
:10196000808365E972E08CE594E00E9441068DE495
:1019700093E00E94DC0668EE73E080E090E00E9455
:1019800070040E94D900F3CF0E94060D08F481E094
:101990000895E89409C097FB3EF490958095709562
:1019A00061957F4F8F4F9F4F9923A9F0F92F96E9AB
:1019B000BB279395F695879577956795B795F11120
:1019C000F8CFFAF4BB0F11F460FF1BC06F5F7F4FBD
:1019D0008F4F9F4F16C0882311F096E911C07723CF
:1019E00021F09EE8872F762F05C0662371F096E8D8
:1019F000862F70E060E02AF09A95660F771F881FA7
:101A0000DAF7880F9695879597F90895990F00084A
:101A1000550FAA0BE0E8FEEF16161706E807F907C0
:101A2000C0F012161306E407F50798F0621B730B5B
:101A3000840B950B39F40A2661F0232B242B252BDC
:101A400021F408950A2609F4A140A6958FEF811D7F
:101A5000811D08950E943D0D0C94AE0D0E94A00DB5
:101A600038F00E94A70D20F0952311F00C94970DEB
:101A70000C949D0D11240C94E20D0E94BF0D70F387
:101A8000959FC1F3950F50E0551F629FF001729F23
:101A9000BB27F00DB11D639FAA27F00DB11DAA1F32
:101AA000649F6627B00DA11D661F829F2227B00D7F
:101AB000A11D621F739FB00DA11D621F839FA00D0A
:101AC000611D221F749F3327A00D611D231F849F5A
:101AD000600D211D822F762F6A2F11249F575040B1
:101AE0009AF0F1F088234AF0EE0FFF1FBB1F661F2C
:101AF000771F881F91505040A9F79E3F510580F0F5
:101B00000C94970D0C94E20D5F3FE4F3983ED4F3F0
:101B1000869577956795B795F795E7959F5FC1F798
:101B2000FE2B880F911D9695879597F9089597F943
:101B30009F6780E870E060E008959FEF80EC089573
:101B400000240A941616170618060906089500249C
:101B50000A9412161306140605060895092E039416
:101B6000000C11F4882352F0BB0F40F4BF2B11F48A
:101B700060FF04C06F5F7F4F8F4F9F4F089557FDE9
:101B80009058440F551F59F05F3F71F04795880FEB
:101B900097FB991F61F09F3F79F087950895121682
:101BA00013061406551FF2CF4695F1DF08C016162E
:101BB00017061806991FF1CF8695710561050894DF
:101BC0000895E894BB2766277727CB0197F90895F6
:101BD0005058BB27AA270E94000E0C94AE0D0E94FD
:101BE000A00D38F00E94A70D20F039F49F3F19F4A2
:101BF00026F40C949D0D0EF4E095E7FB0C94970DE4
:101C0000E92F0E94BF0D58F3BA17620773078407C4
:101C1000950720F079F4A6F50C94E10D0EF4E0950B
:101C20000B2EBA2FA02D0B01B90190010C01CA0196
:101C3000A0011124FF27591B99F0593F50F4503E41
:101C400068F11A16F040A22F232F342F4427585F33
:101C5000F3CF469537952795A795F0405395C9F74B
:101C60007EF41F16BA0B620B730B840BBAF0915003
:101C7000A1F0FF0FBB1F661F771F881FC2F70EC0A2
:101C8000BA0F621F731F841F48F487957795679575
:101C9000B795F7959E3F08F0B0CF9395880F08F061
:101CA0009927EE0F9795879508950E94690E0C94D9
:101CB000AE0D0E94A70D58F00E94A00D40F029F42F
:101CC0005F3F29F00C94970D51110C94E20D0C9488
:101CD0009D0D0E94BF0D68F39923B1F3552391F335
:101CE000951B550BBB27AA2762177307840738F08B
:101CF0009F5F5F4F220F331F441FAA1FA9F335D0E8
:101D00000E2E3AF0E0E832D091505040E695001C9B
:101D1000CAF72BD0FE2F29D0660F771F881FBB1F55
:101D2000261737074807AB07B0E809F0BB0B802D33
:101D3000BF01FF2793585F4F3AF09E3F510578F05F
:101D40000C94970D0C94E20D5F3FE4F3983ED4F3AE
:101D5000869577956795B795F7959F5FC9F7880F33
:101D6000911D9695879597F90895E1E0660F771F85
:101D7000881FBB1F621773078407BA0720F0621B16
:101D8000730B840BBA0BEE1F88F7E09508950E9441
:101D9000CE0E6894B1110C94E20D08950E94C70D07
:101DA00088F09F5798F0B92F9927B751B0F0E1F01C
:101DB000660F771F881F991F1AF0BA95C9F714C0CC
:101DC000B13091F00E94E10DB1E008950C94E10D65
:101DD000672F782F8827B85F39F0B93FCCF3869505
:101DE00077956795B395D9F73EF490958095709562
:101DF00061957F4F8F4F9F4F08950E94060D08F405
:101E00008FEF0895052E97FB1EF400940E94190F82
:101E100057FD07D00E94270F07FC03D04EF40C9407
:101E2000190F50954095309521953F4F4F4F5F4F7B
:101E3000089590958095709561957F4F8F4F9F4F36
:101E40000895EE0FFF1F0590F491E02D0994A1E293
:101E50001A2EAA1BBB1BFD010DC0AA1FBB1FEE1F24
:101E6000FF1FA217B307E407F50720F0A21BB30B6F
:101E7000E40BF50B661F771F881F991F1A9469F7EB
:101E800060957095809590959B01AC01BD01CF0147
:101E900008950F931F93CF93DF938230910510F431
:101EA00082E090E0E0916004F091610420E030E095
:101EB000A0E0B0E0309719F1408151810281138197
:101EC00048175907C8F08417950769F4109731F03F
:101ED00012960C93129713961C9327C000936004DC
:101EE0001093610422C02115310519F042175307E0
:101EF00018F49A01BD01EF01DF01F801DBCF2115D4
:101F00003105F9F0281B390B2430310580F48A8122
:101F10009B816115710521F0FB019383828304C0CD
:101F20009093610480936004FE01329644C0FE01E8
:101F3000E20FF31F81939193225031093983288353
:101F40003AC020915E0430915F04232B41F420912C
:101F500002013091030130935F0420935E042091CD
:101F60000001309101012115310541F42DB73EB733
:101F70004091040150910501241B350BE0915E0452
:101F8000F0915F04E217F307A0F42E1B3F0B281714
:101F9000390778F0AC014E5F5F4F2417350748F0E2
:101FA0004E0F5F1F50935F0440935E0481939193A3
:101FB00002C0E0E0F0E0CF01DF91CF911F910F91DF
:101FC0000895CF93DF93009709F481C0FC01329705
:101FD00013821282A0916004B0916104109781F481
:101FE00020813181820F931F20915E0430915F0424
:101FF0002817390751F5F0935F04E0935E0467C03A
:10200000ED0120E030E0CE17DF0740F44A815B812C
:102010009E0141155105F1F0EA01F5CFD383C2834A
:1020200040815181840F951FC817D90759F48881C1
:102030009981840F951F0296918380838A819B8169
:10204000938382832115310529F4F0936104E09391
:1020500060043DC0E901FB83EA8349915991C40FB3
:10206000D51FEC17FD0761F480819181840F951FC6
:102070000296E90199838883828193819B838A8375
:10208000E0E0F0E012968D919C911397009719F083
:10209000FD01DC01F7CF8D919C9111979D012E5F81
:1020A0003F4F820F931F20915E0430915F042817E9
:1020B000390769F4309729F4109261041092600492
:1020C00002C013821282B0935F04A0935E04DF917A
:1020D000CF91089581E090E0F8940C947810FB0182
:1020E000DC0102C001900D9241505040D8F7089594
:0420F000F894FFCF92
:1020F40000006204800000070E091C1B1215383F03
:10210400363124232A2D70777E796C6B6265484FB3
:10211400464154535A5DE0E7EEE9FCFBF2F5D8DFA3
:10212400D6D1C4C3CACD90979E998C8B8285A8AF13
:10213400A6A1B4B3BABDC7C0C9CEDBDCD5D2FFF803
:10214400F1F6E3E4EDEAB7B0B9BEABACA5A28F8873
:10215400818693949D9A2720292E3B3C35321F1863
:10216400111603040D0A5750595E4B4C45426F68D3
:10217400616673747D7A898E878095929B9CB1B6D3
:10218400BFB8ADAAA3A4F9FEF7F0E5E2EBECC1C633
:10219400CFC8DDDAD3D4696E676075727B7C515623
:1021A4005F584D4A4344191E171005020B0C212693
:1021B4002F283D3A33344E49404752555C5B767183
:1021C400787F6A6D64633E39303722252C2B0601F3
:1021D400080F1A1D1413AEA9A0A7B2B5BCBB9691E3
:1021E400989F8A8D8483DED9D0D7C2C5CCCBE6E153
:1021F400E8EFFAFDF4F30000000052041E04BE02EE
:10220400F602A80270024F021B02FA01A401600147
:1022140000000000EA09B4089C00370ACD00AB00B6
:10222400BF00496E666F3A200072756E6E696E6704
:1022340020737461727420636F6D6D616E640072DB
:10224400756E6E696E672073746F7020636F6D6D49
:10225400616E640072756E6E696E6720737461746A
:10226400757320636F6D6D616E640072656365697B
:10227400766564207061636B65740062696E7220B8
:1022840064726F7000436F726520496E697469618E
:062294006C697A6564002C
:107E0000112484B714BE81FFF0D085E080938100F7
:107E100082E08093C00088E18093C10086E0809377
:107E2000C20080E18093C4008EE0C9D0259A86E02C
:107E300020E33CEF91E0309385002093840096BBD3
:107E4000B09BFECF1D9AA8958150A9F7CC24DD24C4
:107E500088248394B5E0AB2EA1E19A2EF3E0BF2EE7
:107E6000A2D0813461F49FD0082FAFD0023811F036
:107E7000013811F484E001C083E08DD089C08234E0
:107E800011F484E103C0853419F485E0A6D080C0E4
:107E9000853579F488D0E82EFF2485D0082F10E0AE
:107EA000102F00270E291F29000F111F8ED06801E7
:107EB0006FC0863521F484E090D080E0DECF843638
:107EC00009F040C070D06FD0082F6DD080E0C81688
:107ED00080E7D80618F4F601B7BEE895C0E0D1E017
:107EE00062D089930C17E1F7F0E0CF16F0E7DF06D8
:107EF00018F0F601B7BEE89568D007B600FCFDCFD4
:107F0000A601A0E0B1E02C9130E011968C91119780
:107F100090E0982F8827822B932B1296FA010C0160
:107F200087BEE89511244E5F5F4FF1E0A038BF0790
:107F300051F7F601A7BEE89507B600FCFDCF97BE46
:107F4000E89526C08437B1F42ED02DD0F82E2BD052
:107F50003CD0F601EF2C8F010F5F1F4F84911BD097
:107F6000EA94F801C1F70894C11CD11CFA94CF0C13
:107F7000D11C0EC0853739F428D08EE10CD085E9AC
:107F80000AD08FE07ACF813511F488E018D01DD067
:107F900080E101D065CF982F8091C00085FFFCCF94
:107FA0009093C60008958091C00087FFFCCF809118
:107FB000C00084FD01C0A8958091C6000895E0E648
:107FC000F0E098E1908380830895EDDF803219F02E
:107FD00088E0F5DFFFCF84E1DECF1F93182FE3DFCA
:107FE0001150E9F7F2DF1F91089580E0E8DFEE27F6
:047FF000FF270994CA
:027FFE00040479
:0400000300007E007B
:00000001FF