:100000000C9462000C948A000C948A000C948A0070
:100010000C948A000C948A000C948A000C948A0038
:100020000C948A000C948A000C948A000C948A0028
:100030000C948A000C948A000C948A000C948A0018
:100040000C94A4030C948A000C9472030C944C033B
:100050000C948A000C948A000C948A000C948A00F8
:100060000C948A000C948A000000000024002700F1
:100070002A0000000000250028002B0000000000DE
:1000800023002600290004040404040404040202DA
:100090000202020203030303030301020408102007
:1000A0004080010204081020010204081020000012
:1000B0000008000201000003040700000000000027
:1000C0000000EE0311241FBECFEFD8E0DEBFCDBF8E
:1000D00022E0AEE3B1E001C01D92A333B207E1F725
:1000E00011E0A0E0B1E0E2EFFCE002C005900D926B
:1000F000AE33B107D9F710E0C2E6D0E004C02197D3
:10010000FE010E946C06C136D107C9F70E942D047A
:100110000C9477060C940000EEE4F1E0A089B1891C
:1001200082E08C93A485B5851C92A685B7858FEC5B
:100130008C93108EA489B58986E08C93A289B389AB
:100140008C9180618C93A289B3898C9188608C9307
:10015000A289B3898C9180688C930288F389E02D01
:1001600080818F7D80830895CF92DF92EF92FF92FE
:100170000F931F93CF93DF936C017A018B01C0E043
:10018000D0E0CE15DF0581F0D8016D918D01D6014B
:10019000ED91FC910190F081E02DC6010995892B2C
:1001A00011F02196EECF7E01C701DF91CF911F9113
:1001B0000F91FF90EF90DF90CF900895089580E029
:1001C00090E00895FC01538D448D252F30E0842F5D
:1001D00090E0821B930B541710F0CF96089501976F
:1001E0000895FC01918D828D981761F0828DDF0159
:1001F000A80FB11D5D968C91928D9F5F9F73928F1A
:1002000090E008958FEF9FEF0895FC01918D828D0E
:10021000981731F0828DE80FF11D858D90E00895DB
:100220008FEF9FEF0895FC01918D228D892F90E033
:10023000805C9F4F821B91098F73992708958EE4EC
:1002400091E00E94130121E0892B09F420E0822F24
:100250000895FC01848DDF01A80FB11DA35ABF4F83
:100260002C91848D90E001968F739927848FA689B5
:10027000B7892C93A089B1898C91837080648C9309
:10028000938D848D981306C00288F389E02D8081B8
:100290008F7D80830895EF92FF920F931F93CF93EA
:1002A000DF93EC0181E0888F9B8D8C8D981305C0C6
:1002B000E889F989808185FD26C0F62E0B8D10E036
:1002C0000F5F1F4F0F731127E02E8C8DE8120CC0AB
:1002D0000FB607FCFACFE889F989808185FFF5CF51
:1002E000CE010E942901F1CF8B8DFE01E80FF11D97
:1002F000E35AFF4FF0829FB7F8940B8FEA89FB898E
:10030000808180620AC09FB7F894EE89FF8960837C
:10031000E889F98980818370806480839FBF81E050
:1003200090E0DF91CF911F910F91FF90EF90089592
:10033000CF93DF93EC01888D8823C9F0EA89FB898C
:10034000808185FD05C0A889B9898C9186FD0FC083
:100350000FB607FCF5CF808185FFF2CFA889B98958
:100360008C9185FFEDCFCE010E942901E7CFDF916F
:10037000CF91089580E090E0892B29F00E941F0121
:1003800081110C9400000895833081F028F48130AD
:1003900099F08230A1F008958730A9F08830B9F043
:1003A0008430D1F4809180008F7D03C080918000E3
:1003B0008F7780938000089584B58F7702C084B5CD
:1003C0008F7D84BD08958091B0008F7703C08091A8
:1003D000B0008F7D8093B0000895CF93DF93282FD6
:1003E00030E0F901E255FF4F8491F901E656FF4FE5
:1003F000D491F901EA57FF4FC491CC2391F08111B8
:100400000E94C401EC2FF0E0EE0FFF1FE458FF4FF5
:10041000A591B491EC91ED2381E090E021F480E08E
:1004200002C080E090E0DF91CF9108951F93CF93B9
:10043000DF93282F30E0F901E255FF4F8491F90155
:10044000E656FF4FD491F901EA57FF4FC491CC23F0
:10045000C1F0162F81110E94C401EC2FF0E0EE0FC5
:10046000FF1FEE58FF4FA591B4919FB7F89411115B
:1004700004C08C91D095D82302C0EC91DE2BDC9384
:100480009FBFDF91CF911F910895CF93DF9390E0AD
:10049000FC01E656FF4F2491FC01EA57FF4F84917F
:1004A000882361F190E0880F991FFC01E859FF4F04
:1004B000C591D491FC01EE58FF4FA591B491611103
:1004C00009C09FB7F8948881209582238883EC9196
:1004D0002E230BC0623061F49FB7F8948881322FCD
:1004E000309583238883EC912E2B2C939FBF06C0DD
:1004F0008FB7F894E8812E2B28838FBFDF91CF919F
:1005000008953FB7F8948091430190914401A091E0
:100510004501B091460126B5A89B05C02F3F19F0B3
:100520000196A11DB11D3FBFBA2FA92F982F882773
:10053000820F911DA11DB11DBC01CD0142E0660FCE
:10054000771F881F991F4A95D1F708958F929F9220
:10055000AF92BF92CF92DF92EF92FF926B017C013C
:100560000E9481024B015C01C114D104E104F10439
:10057000F1F00E948102DC01CB0188199909AA09D6
:10058000BB09883E9340A105B10570F321E0C21A72
:10059000D108E108F10888EE880E83E0981EA11CBE
:1005A000B11CC114D104E104F10419F7DDCFFF90AF
:1005B000EF90DF90CF90BF90AF909F908F90089575
:1005C0002FB7F89460913F017091400180914101F3
:1005D000909142012FBF08956115710579F0FB01DB
:1005E00001900020E9F73197AF01461B570BDC0162
:1005F000ED91FC910280F381E02D099480E090E080
:1006000008958F929F92AF92BF92EF92FF920F93B5
:100610001F93CF93DF93CDB7DEB7A1970FB6F894B2
:10062000DEBF0FBECDBF7C01FA01CB0119A2223083
:1006300008F42AE08E010F5D1F4F822E912CA12C11
:10064000B12CBF01A50194010E944A06F901CA011B
:10065000015011096A3014F4605D01C0695CD80171
:100660006C93232B242B252B61F7B801C7010E9423
:10067000EC02A1960FB6F894DEBF0FBECDBFDF919E
:10068000CF911F910F91FF90EF90BF90AF909F90EF
:100690008F9008950E9472061F920F920FB60F92CC
:1006A00011242F933F934F935F936F937F938F9377
:1006B0009F93AF93BF93EF93FF938EE491E00E94DB
:1006C0002901FF91EF91BF91AF919F918F917F9100
:1006D0006F915F914F913F912F910F900FBE0F90AF
:1006E0001F9018951F920F920FB60F9211242F93FF
:1006F0008F939F93EF93FF93E0915E01F0915F01E1
:100700008081E0916401F091650182FD12C09081C9
:10071000809167018F5F8F7320916801821751F07C
:10072000E0916701F0E0E25BFE4F958F80936701F7
:1007300001C08081FF91EF919F918F912F910F9038
:100740000FBE0F901F9018951F920F920FB60F9229
:1007500011242F933F938F939F93AF93BF938091D7
:100760003F0190914001A0914101B091420130912F
:100770003E0123E0230F2D3720F40196A11DB11D6A
:1007800005C026E8230F0296A11DB11D20933E014E
:1007900080933F0190934001A0934101B0934201A7
:1007A0008091430190914401A0914501B09146018F
:1007B0000196A11DB11D8093430190934401A09324
:1007C0004501B0934601BF91AF919F918F913F91A9
:1007D0002F910F900FBE0F901F901895EEE4F1E04F
:1007E0001382128288EE93E0A0E0B0E084839583C8
:1007F000A683B7838AE091E09183808385EC90E0C3
:100800009587848784EC90E09787868780EC90E0DA
:10081000918B808B81EC90E0938B828B82EC90E0CB
:10082000958B848B86EC90E0978B868B118E128E45
:10083000138E148EEBEEF1E016821782108611866D
:10084000128613861486158616861786108A118AD4
:10085000128A138A148A158A0895789484B582605E
:1008600084BD84B5816084BD85B5826085BD85B554
:10087000816085BD80916E00816080936E001092D2
:10088000810080918100826080938100809181004D
:1008900081608093810080918000816080938000DE
:1008A0008091B10084608093B1008091B00081603C
:1008B0008093B00080917A00846080937A00809168
:1008C0007A00826080937A0080917A0081608093C0
:1008D0007A0080917A00806880937A001092C1003B
:1008E00010922F02109230021092310210923202B6
:1008F0001092ED011092EE011092EF011092F001B2
:100900000E94E0026B017C014B015C0128EB820E2E
:100910002BE0921EA11CB11C0E94E0026C157D050B
:100920008E059F0528F086169706A806B906A0F73B
:100930008EE491E090932E0280932D020E948C0011
:100940000E94E0026093ED017093EE018093EF014D
:100950009093F00168E171E080912D0290912E0258
:100960000E94EC020E94E0026B017C014B015C01E1
:100970003AE0830E911CA11CB11C0E94E0026C1590
:100980007D058E059F0528F086169706A806B906F0
:10099000A0F781E08093010261E085E00E944502BA
:1009A00061E084E00E94450260E082E00E9445022E
:1009B0000E948C0084EFC82EDD24D394E12CF12C0E
:1009C0000E94E002672B682B692B41F40E94E00231
:1009D000623071058105910508F410C10E94E002A2
:1009E00080904A0190904B01A0904C01B0904D0135
:1009F000681579058A059B0540F460934A01709358
:100A00004B0180934C0190934D0180904A0190904E
:100A10004B01A0904C01B0904D019B01AC012819F5
:100A200039094A095B0949015A013AEF83169104D1
:100A3000A104B10408F4E2C060934A0170934B0131
:100A400080934C0190934D01C092F901D092FA012C
:100A5000E092FB01F092FC011092FD011092FE0168
:100A60001092FF01109200028091F1019091F20129
:100A7000A091F301B091F4018093F5019093F601F8
:100A8000A093F701B093F8010E94E0026093F10196
:100A90007093F2018093F3019093F4010E94E002BD
:100AA0006093ED017093EE018093EF019093F0015C
:100AB0000E94E0024B015C016AE271E080912D022C
:100AC00090912E020E94EC022AE041E050E060E0AA
:100AD00070E080912D0290912E020E94010361E34B
:100AE00071E080912D0290912E020E94EC022AE08A
:100AF000B501A40180912D0290912E020E94010364
:100B000063E371E080912D0290912E020E94EC022D
:100B10008091F1019091F201A091F301B091F40163
:100B2000B501A401481B590B6A0B7B0B2AE080918D
:100B30002D0290912E020E94010363E371E08091E7
:100B40002D0290912E020E94EC024091F1015091F1
:100B5000F2016091F3017091F4018091F50190919F
:100B6000F601A091F701B091F801481B590B6A0BEF
:100B70007B0B2AE080912D0290912E020E940103AE
:100B800065E371E080912D0290912E020E94EC02AB
:100B90000E94E002AB01BC012AE080912D029091FD
:100BA0002E020E940103C0912D02D0912E0267E314
:100BB00071E0CE010E94EC0267E271E0CE010E947A
:100BC000EC020E94E0024B015C012B013C0145E07C
:100BD000440E511C611C711C0E94E00268157905CD
:100BE0008A059B0508F04FC00E94E0026093F10166
:100BF0007093F2018093F3019093F40182E00E94DC
:100C0000ED01C0914801D0914901FE01E050FF4F34
:100C1000B080B092470182E00E94ED01019739F463
:100C200064E670E080E090E00E94A602F4CF61E00C
:100C300085E00E941602BB2011F061E001C060E077
:100C400084E00E94160282E00E94ED01892B39F4B3
:100C50006AE070E080E090E00E94A602F4CF60E0DD
:100C600085E00E941602C630D1052CF01092490191
:100C70001092480105C02196D0934901C0934801C4
:100C80000E94BA019DCE461657066806790608F0FE
:100C9000A3CFAACFA1E21A2EAA1BBB1BFD010DC038
:100CA000AA1FBB1FEE1FFF1FA217B307E407F5071C
:100CB00020F0A21BB30BE40BF50B661F771F881FF8
:100CC000991F1A9469F760957095809590959B018E
:100CD000AC01BD01CF010895EE0FFF1F0590F49107
:100CE000E02D099481E090E0F8940C947706F89454
:020CF000FFCF34
:100CF200010100010000000000004B01B400E2000D
:100D020098011301F1000501564D4450565F317CA4
:100D1200315F564D4450560D0A00564D4450455FC2
:0E0D2200003A323A007C005F564D44504500C6
:00000001FF
